{
  "transactions": [
    {
      "hash": "0xde0ce69dce50958f15bc22441cefb4f858e3794cb80ae8ddd0ede8126c76ec42",
      "transactionType": "CALL",
      "contractName": null,
      "contractAddress": "0xe3d939af7f5e3aa919ecf12776c7989cee2ddb8d",
      "function": "createPaymentRequest(address,address,uint256,string)",
      "arguments": [
        "0x833589fCD6eDb6E08f4c7C32D4f71b54bdA02913",
        "0x4C64C7dC4fc7ba5B89fAd3AEbC68892bFC1B67d5",
        "100",
        "Test payment request"
      ],
      "transaction": {
        "from": "0x4c64c7dc4fc7ba5b89fad3aebc68892bfc1b67d5",
        "to": "0xe3d939af7f5e3aa919ecf12776c7989cee2ddb8d",
        "gas": "0x73d67",
        "value": "0x0",
        "input": "0xee2022d7000000000000000000000000833589fcd6edb6e08f4c7c32d4f71b54bda029130000000000000000000000004c64c7dc4fc7ba5b89fad3aebc68892bfc1b67d500000000000000000000000000000000000000000000000000000000000000640000000000000000000000000000000000000000000000000000000000000080000000000000000000000000000000000000000000000000000000000000001454657374207061796d656e742072657175657374000000000000000000000000",
        "nonce": "0x32a",
        "chainId": "0x2105"
      },
      "additionalContracts": [],
      "isFixedGasLimit": false
    }
  ],
  "receipts": [
    {
      "status": "0x1",
      "cumulativeGasUsed": "0x1946f88",
      "logs": [
        {
          "address": "0xe3d939af7f5e3aa919ecf12776c7989cee2ddb8d",
          "topics": [
            "0xddf252ad1be2c89b69c2b068fc378daa952ba7f163c4a11628f55a4df523b3ef",
            "0x0000000000000000000000000000000000000000000000000000000000000000",
            "0x0000000000000000000000004c64c7dc4fc7ba5b89fad3aebc68892bfc1b67d5",
            "0x0000000000000000000000000000000000000000000000000000000000000001"
          ],
          "data": "0x",
          "blockHash": "0xef1b61e508879afed10c5c8df9f4d60afbf2d9b67fea81615b6e660bb99a19e7",
          "blockNumber": "0x1787a2e",
          "transactionHash": "0xde0ce69dce50958f15bc22441cefb4f858e3794cb80ae8ddd0ede8126c76ec42",
          "transactionIndex": "0x4e",
          "logIndex": "0xb4",
          "removed": false
        },
        {
          "address": "0xe3d939af7f5e3aa919ecf12776c7989cee2ddb8d",
          "topics": [
            "0x8a083cd3a26265c2291377a1039beded717bb48a6544632ac3a93b0d2cc0f03f"
          ],
          "data": "0x00000000000000000000000000000000000000000000000000000000000000010000000000000000000000004c64c7dc4fc7ba5b89fad3aebc68892bfc1b67d500000000000000000000000000000000000000000000000000000000000000640000000000000000000000000000000000000000000000000000000000000080000000000000000000000000000000000000000000000000000000000000001454657374207061796d656e742072657175657374000000000000000000000000",
          "blockHash": "0xef1b61e508879afed10c5c8df9f4d60afbf2d9b67fea81615b6e660bb99a19e7",
          "blockNumber": "0x1787a2e",
          "transactionHash": "0xde0ce69dce50958f15bc22441cefb4f858e3794cb80ae8ddd0ede8126c76ec42",
          "transactionIndex": "0x4e",
          "logIndex": "0xb5",
          "removed": false
        }
      ],
      "logsBloom": "0x00000000000000000000000000000000000000000000000010000000000000000000000000000000000000020000000010000000000000000000000000040000000000000000000000000008000000000000000000040000000000000000000000000000020000004000000000000800000000000000000000000010000000000000000000000000000000000000000000000000000000000000000000000000000000000000000000000000000000000000000000000000000000000000000000000002000000010000000000000200400000000000000000000000000060000080000000000000000000000000000040000000000000000000000000000000",
      "type": "0x2",
      "transactionHash": "0xde0ce69dce50958f15bc22441cefb4f858e3794cb80ae8ddd0ede8126c76ec42",
      "transactionIndex": "0x4e",
      "blockHash": "0xef1b61e508879afed10c5c8df9f4d60afbf2d9b67fea81615b6e660bb99a19e7",
      "blockNumber": "0x1787a2e",
      "gasUsed": "0x4f349",
      "effectiveGasPrice": "0x12f9948",
      "from": "0x4c64c7dc4fc7ba5b89fad3aebc68892bfc1b67d5",
      "to": "0xe3d939af7f5e3aa919ecf12776c7989cee2ddb8d",
      "contractAddress": null,
      "l1BaseFeeScalar": "0x8dd",
      "l1BlobBaseFee": "0xa9a9",
      "l1BlobBaseFeeScalar": "0x101c12",
      "l1Fee": "0x6c15ddac6",
      "l1GasPrice": "0x156c9c7b8",
      "l1GasUsed": "0x8ae"
    }
  ],
  "libraries": [],
  "pending": [],
  "returns": {},
  "timestamp": 1736134980,
  "chain": 8453,
  "commit": "44ab3dc"
}