{
  "transactions": [
    {
      "hash": "0xf1778c0fd2119052023beb7b2c7b334dbb11516d8fcea77633edfc27755969e9",
      "transactionType": "CALL",
      "contractName": null,
      "contractAddress": "0xe3d939af7f5e3aa919ecf12776c7989cee2ddb8d",
      "function": "createPaymentRequest(address,address,uint256,string)",
      "arguments": [
        "0x833589fCD6eDb6E08f4c7C32D4f71b54bdA02913",
        "0x4C64C7dC4fc7ba5B89fAd3AEbC68892bFC1B67d5",
        "100",
        "Test payment request"
      ],
      "transaction": {
        "from": "0x4c64c7dc4fc7ba5b89fad3aebc68892bfc1b67d5",
        "to": "0xe3d939af7f5e3aa919ecf12776c7989cee2ddb8d",
        "gas": "0x6d6e8",
        "value": "0x0",
        "input": "0xee2022d7000000000000000000000000833589fcd6edb6e08f4c7c32d4f71b54bda029130000000000000000000000004c64c7dc4fc7ba5b89fad3aebc68892bfc1b67d500000000000000000000000000000000000000000000000000000000000000640000000000000000000000000000000000000000000000000000000000000080000000000000000000000000000000000000000000000000000000000000001454657374207061796d656e742072657175657374000000000000000000000000",
        "nonce": "0x339",
        "chainId": "0x2105"
      },
      "additionalContracts": [],
      "isFixedGasLimit": false
    }
  ],
  "receipts": [
    {
      "status": "0x1",
      "cumulativeGasUsed": "0x390d207",
      "logs": [
        {
          "address": "0xe3d939af7f5e3aa919ecf12776c7989cee2ddb8d",
          "topics": [
            "0xddf252ad1be2c89b69c2b068fc378daa952ba7f163c4a11628f55a4df523b3ef",
            "0x0000000000000000000000000000000000000000000000000000000000000000",
            "0x0000000000000000000000004c64c7dc4fc7ba5b89fad3aebc68892bfc1b67d5",
            "0x0000000000000000000000000000000000000000000000000000000000000006"
          ],
          "data": "0x",
          "blockHash": "0xca93eb4bb4daed52323eadf12778ef6f246adb9123ab6681331adf2fec7af1d9",
          "blockNumber": "0x178ece9",
          "transactionHash": "0xf1778c0fd2119052023beb7b2c7b334dbb11516d8fcea77633edfc27755969e9",
          "transactionIndex": "0x3c7",
          "logIndex": "0x102",
          "removed": false
        },
        {
          "address": "0xe3d939af7f5e3aa919ecf12776c7989cee2ddb8d",
          "topics": [
            "0x8a083cd3a26265c2291377a1039beded717bb48a6544632ac3a93b0d2cc0f03f"
          ],
          "data": "0x00000000000000000000000000000000000000000000000000000000000000060000000000000000000000004c64c7dc4fc7ba5b89fad3aebc68892bfc1b67d500000000000000000000000000000000000000000000000000000000000000640000000000000000000000000000000000000000000000000000000000000080000000000000000000000000000000000000000000000000000000000000001454657374207061796d656e742072657175657374000000000000000000000000",
          "blockHash": "0xca93eb4bb4daed52323eadf12778ef6f246adb9123ab6681331adf2fec7af1d9",
          "blockNumber": "0x178ece9",
          "transactionHash": "0xf1778c0fd2119052023beb7b2c7b334dbb11516d8fcea77633edfc27755969e9",
          "transactionIndex": "0x3c7",
          "logIndex": "0x103",
          "removed": false
        }
      ],
      "logsBloom": "0x00000000000000000000000000000000000000000000000010000000000000000000000000000000000000020000000010000000000400000000000000000000000000000000000000000008000000000000000000000000000000000000000000000000020000004000000000000800000000000000000000000010000000000000000400000000000000000000000000000000000000000000000000000000000000000000000000000000000000000000000000000000000000080000000000000002000000010000000000000200400000000000000000000000000020000080000000000000000000000000000040000000000000000000000000000000",
      "type": "0x2",
      "transactionHash": "0xf1778c0fd2119052023beb7b2c7b334dbb11516d8fcea77633edfc27755969e9",
      "transactionIndex": "0x3c7",
      "blockHash": "0xca93eb4bb4daed52323eadf12778ef6f246adb9123ab6681331adf2fec7af1d9",
      "blockNumber": "0x178ece9",
      "gasUsed": "0x4f3a0",
      "effectiveGasPrice": "0x15f9f77",
      "from": "0x4c64c7dc4fc7ba5b89fad3aebc68892bfc1b67d5",
      "to": "0xe3d939af7f5e3aa919ecf12776c7989cee2ddb8d",
      "contractAddress": null,
      "l1BaseFeeScalar": "0x8dd",
      "l1BlobBaseFee": "0x18af8a639",
      "l1BlobBaseFeeScalar": "0x101c12",
      "l1Fee": "0xfb67659797",
      "l1GasPrice": "0x4f9a5ec0f",
      "l1GasUsed": "0x8ae"
    }
  ],
  "libraries": [],
  "pending": [],
  "returns": {},
  "timestamp": 1736193721,
  "chain": 8453,
  "commit": "8f973f9"
}