{
  "transactions": [
    {
      "hash": "0xfe85f499ceba2d9343ca106b4e206bf698355894fff1727a6b49fdfccea0872e",
      "transactionType": "CALL",
      "contractName": null,
      "contractAddress": "0xe3d939af7f5e3aa919ecf12776c7989cee2ddb8d",
      "function": "createPaymentRequest(address,address,uint256,string)",
      "arguments": [
        "0x833589fCD6eDb6E08f4c7C32D4f71b54bdA02913",
        "0x4C64C7dC4fc7ba5B89fAd3AEbC68892bFC1B67d5",
        "100",
        "Test payment request"
      ],
      "transaction": {
        "from": "0x4c64c7dc4fc7ba5b89fad3aebc68892bfc1b67d5",
        "to": "0xe3d939af7f5e3aa919ecf12776c7989cee2ddb8d",
        "gas": "0x6d6e8",
        "value": "0x0",
        "input": "0xee2022d7000000000000000000000000833589fcd6edb6e08f4c7c32d4f71b54bda029130000000000000000000000004c64c7dc4fc7ba5b89fad3aebc68892bfc1b67d500000000000000000000000000000000000000000000000000000000000000640000000000000000000000000000000000000000000000000000000000000080000000000000000000000000000000000000000000000000000000000000001454657374207061796d656e742072657175657374000000000000000000000000",
        "nonce": "0x336",
        "chainId": "0x2105"
      },
      "additionalContracts": [],
      "isFixedGasLimit": false
    }
  ],
  "receipts": [
    {
      "status": "0x1",
      "cumulativeGasUsed": "0x14ac9af",
      "logs": [
        {
          "address": "0xe3d939af7f5e3aa919ecf12776c7989cee2ddb8d",
          "topics": [
            "0xddf252ad1be2c89b69c2b068fc378daa952ba7f163c4a11628f55a4df523b3ef",
            "0x0000000000000000000000000000000000000000000000000000000000000000",
            "0x0000000000000000000000004c64c7dc4fc7ba5b89fad3aebc68892bfc1b67d5",
            "0x0000000000000000000000000000000000000000000000000000000000000005"
          ],
          "data": "0x",
          "blockHash": "0x51fe1d38cea7d5820057e0558bf6f630fefe554bae3a4135e9af7ddb0ab87fc3",
          "blockNumber": "0x178ea15",
          "transactionHash": "0xfe85f499ceba2d9343ca106b4e206bf698355894fff1727a6b49fdfccea0872e",
          "transactionIndex": "0x6e",
          "logIndex": "0xaa",
          "removed": false
        },
        {
          "address": "0xe3d939af7f5e3aa919ecf12776c7989cee2ddb8d",
          "topics": [
            "0x8a083cd3a26265c2291377a1039beded717bb48a6544632ac3a93b0d2cc0f03f"
          ],
          "data": "0x00000000000000000000000000000000000000000000000000000000000000050000000000000000000000004c64c7dc4fc7ba5b89fad3aebc68892bfc1b67d500000000000000000000000000000000000000000000000000000000000000640000000000000000000000000000000000000000000000000000000000000080000000000000000000000000000000000000000000000000000000000000001454657374207061796d656e742072657175657374000000000000000000000000",
          "blockHash": "0x51fe1d38cea7d5820057e0558bf6f630fefe554bae3a4135e9af7ddb0ab87fc3",
          "blockNumber": "0x178ea15",
          "transactionHash": "0xfe85f499ceba2d9343ca106b4e206bf698355894fff1727a6b49fdfccea0872e",
          "transactionIndex": "0x6e",
          "logIndex": "0xab",
          "removed": false
        }
      ],
      "logsBloom": "0x00000000000000000000000000000000000000000000000010000000000000000000000000000000000000020000000010000000000000000000000000000000000010000000000000000008000000000000000000000000000000000000000000000000020000004000000000000800000000000000000000000010000000000000000000000000000000000000001000000800000000000000000000000000000000000000000000000000000000000000000000000000000000000000000000000002000000010000000000000200400000000000000000000000000020000080000000000000000000000000000040000000000000000000000000000000",
      "type": "0x2",
      "transactionHash": "0xfe85f499ceba2d9343ca106b4e206bf698355894fff1727a6b49fdfccea0872e",
      "transactionIndex": "0x6e",
      "blockHash": "0x51fe1d38cea7d5820057e0558bf6f630fefe554bae3a4135e9af7ddb0ab87fc3",
      "blockNumber": "0x178ea15",
      "gasUsed": "0x4f3a0",
      "effectiveGasPrice": "0x1526dc2",
      "from": "0x4c64c7dc4fc7ba5b89fad3aebc68892bfc1b67d5",
      "to": "0xe3d939af7f5e3aa919ecf12776c7989cee2ddb8d",
      "contractAddress": null,
      "l1BaseFeeScalar": "0x8dd",
      "l1BlobBaseFee": "0x1ab3c41da",
      "l1BlobBaseFeeScalar": "0x101c12",
      "l1Fee": "0x109d2671ad6",
      "l1GasPrice": "0x42b2604ed",
      "l1GasUsed": "0x8ae"
    }
  ],
  "libraries": [],
  "pending": [],
  "returns": {},
  "timestamp": 1736192274,
  "chain": 8453,
  "commit": "3e3f888"
}