{
  "transactions": [
    {
      "hash": "0x0f9c59602c5011ce40f1ae5fb20f80044ae8781058c1b1bcfcbf5e1ddb3c27d0",
      "transactionType": "CALL",
      "contractName": null,
      "contractAddress": "0xe3d939af7f5e3aa919ecf12776c7989cee2ddb8d",
      "function": "createPaymentRequest(address,address,uint256,string)",
      "arguments": [
        "0x833589fCD6eDb6E08f4c7C32D4f71b54bdA02913",
        "0x4C64C7dC4fc7ba5B89fAd3AEbC68892bFC1B67d5",
        "100",
        "Test payment request"
      ],
      "transaction": {
        "from": "0x4c64c7dc4fc7ba5b89fad3aebc68892bfc1b67d5",
        "to": "0xe3d939af7f5e3aa919ecf12776c7989cee2ddb8d",
        "gas": "0x6d6e8",
        "value": "0x0",
        "input": "0xee2022d7000000000000000000000000833589fcd6edb6e08f4c7c32d4f71b54bda029130000000000000000000000004c64c7dc4fc7ba5b89fad3aebc68892bfc1b67d500000000000000000000000000000000000000000000000000000000000000640000000000000000000000000000000000000000000000000000000000000080000000000000000000000000000000000000000000000000000000000000001454657374207061796d656e742072657175657374000000000000000000000000",
        "nonce": "0x32d",
        "chainId": "0x2105"
      },
      "additionalContracts": [],
      "isFixedGasLimit": false
    }
  ],
  "receipts": [
    {
      "status": "0x1",
      "cumulativeGasUsed": "0x1bf0591",
      "logs": [
        {
          "address": "0xe3d939af7f5e3aa919ecf12776c7989cee2ddb8d",
          "topics": [
            "0xddf252ad1be2c89b69c2b068fc378daa952ba7f163c4a11628f55a4df523b3ef",
            "0x0000000000000000000000000000000000000000000000000000000000000000",
            "0x0000000000000000000000004c64c7dc4fc7ba5b89fad3aebc68892bfc1b67d5",
            "0x0000000000000000000000000000000000000000000000000000000000000002"
          ],
          "data": "0x",
          "blockHash": "0x43f208e21985e3cf6261a0bb2f9f18b7cff65a3546ddeee77c205c3cbb4b6403",
          "blockNumber": "0x1787a45",
          "transactionHash": "0x0f9c59602c5011ce40f1ae5fb20f80044ae8781058c1b1bcfcbf5e1ddb3c27d0",
          "transactionIndex": "0x88",
          "logIndex": "0x148",
          "removed": false
        },
        {
          "address": "0xe3d939af7f5e3aa919ecf12776c7989cee2ddb8d",
          "topics": [
            "0x8a083cd3a26265c2291377a1039beded717bb48a6544632ac3a93b0d2cc0f03f"
          ],
          "data": "0x00000000000000000000000000000000000000000000000000000000000000020000000000000000000000004c64c7dc4fc7ba5b89fad3aebc68892bfc1b67d500000000000000000000000000000000000000000000000000000000000000640000000000000000000000000000000000000000000000000000000000000080000000000000000000000000000000000000000000000000000000000000001454657374207061796d656e742072657175657374000000000000000000000000",
          "blockHash": "0x43f208e21985e3cf6261a0bb2f9f18b7cff65a3546ddeee77c205c3cbb4b6403",
          "blockNumber": "0x1787a45",
          "transactionHash": "0x0f9c59602c5011ce40f1ae5fb20f80044ae8781058c1b1bcfcbf5e1ddb3c27d0",
          "transactionIndex": "0x88",
          "logIndex": "0x149",
          "removed": false
        }
      ],
      "logsBloom": "0x04000000000000000000000000000000000000000000000010000000000000000000000000000000000000020000000010000000000000000000000000000000000000000000000000000008000000000000000000000000000000000000000000000000020000004000000000000800000000000000000000000010000000000000000000000000000000000000000000000000000000000000000000000000000000000000000000000100000000000000000000000000000000000000000000000002000000010000000000000200400000000000000000000000000020000080000000000000000000000000000040000000008000000000000000000000",
      "type": "0x2",
      "transactionHash": "0x0f9c59602c5011ce40f1ae5fb20f80044ae8781058c1b1bcfcbf5e1ddb3c27d0",
      "transactionIndex": "0x88",
      "blockHash": "0x43f208e21985e3cf6261a0bb2f9f18b7cff65a3546ddeee77c205c3cbb4b6403",
      "blockNumber": "0x1787a45",
      "gasUsed": "0x4f3a0",
      "effectiveGasPrice": "0x1346e95",
      "from": "0x4c64c7dc4fc7ba5b89fad3aebc68892bfc1b67d5",
      "to": "0xe3d939af7f5e3aa919ecf12776c7989cee2ddb8d",
      "contractAddress": null,
      "l1BaseFeeScalar": "0x8dd",
      "l1BlobBaseFee": "0xa9a9",
      "l1BlobBaseFeeScalar": "0x101c12",
      "l1Fee": "0x6b434ff42",
      "l1GasPrice": "0x1542ddf35",
      "l1GasUsed": "0x8ae"
    }
  ],
  "libraries": [],
  "pending": [],
  "returns": {},
  "timestamp": 1736135027,
  "chain": 8453,
  "commit": "44ab3dc"
}