{
  "transactions": [
    {
      "hash": "0x66c0619c399d8ddcfa98498b29c18b6152f89f317e236ddf210a449804920b35",
      "transactionType": "CALL",
      "contractName": null,
      "contractAddress": "0xe3d939af7f5e3aa919ecf12776c7989cee2ddb8d",
      "function": "createPaymentRequest(address,address,uint256,string)",
      "arguments": [
        "0x833589fCD6eDb6E08f4c7C32D4f71b54bdA02913",
        "0x4C64C7dC4fc7ba5B89fAd3AEbC68892bFC1B67d5",
        "100",
        "Test payment request"
      ],
      "transaction": {
        "from": "0x4c64c7dc4fc7ba5b89fad3aebc68892bfc1b67d5",
        "to": "0xe3d939af7f5e3aa919ecf12776c7989cee2ddb8d",
        "gas": "0x61a0b",
        "value": "0x0",
        "input": "0xee2022d7000000000000000000000000833589fcd6edb6e08f4c7c32d4f71b54bda029130000000000000000000000004c64c7dc4fc7ba5b89fad3aebc68892bfc1b67d500000000000000000000000000000000000000000000000000000000000000640000000000000000000000000000000000000000000000000000000000000080000000000000000000000000000000000000000000000000000000000000001454657374207061796d656e742072657175657374000000000000000000000000",
        "nonce": "0x329",
        "chainId": "0x2105"
      },
      "additionalContracts": [],
      "isFixedGasLimit": false
    }
  ],
  "receipts": [
    {
      "status": "0x1",
      "cumulativeGasUsed": "0x1749d23",
      "logs": [
        {
          "address": "0xe3d939af7f5e3aa919ecf12776c7989cee2ddb8d",
          "topics": [
            "0xddf252ad1be2c89b69c2b068fc378daa952ba7f163c4a11628f55a4df523b3ef",
            "0x0000000000000000000000000000000000000000000000000000000000000000",
            "0x0000000000000000000000004c64c7dc4fc7ba5b89fad3aebc68892bfc1b67d5",
            "0x0000000000000000000000000000000000000000000000000000000000000000"
          ],
          "data": "0x",
          "blockHash": "0xb438ee591ddfdd4052551cd50ff45b2e5c379c04d73fadce5980cc9204baaf38",
          "blockNumber": "0x17879e6",
          "transactionHash": "0x66c0619c399d8ddcfa98498b29c18b6152f89f317e236ddf210a449804920b35",
          "transactionIndex": "0x84",
          "logIndex": "0x114",
          "removed": false
        },
        {
          "address": "0xe3d939af7f5e3aa919ecf12776c7989cee2ddb8d",
          "topics": [
            "0x8a083cd3a26265c2291377a1039beded717bb48a6544632ac3a93b0d2cc0f03f"
          ],
          "data": "0x00000000000000000000000000000000000000000000000000000000000000000000000000000000000000004c64c7dc4fc7ba5b89fad3aebc68892bfc1b67d500000000000000000000000000000000000000000000000000000000000000640000000000000000000000000000000000000000000000000000000000000080000000000000000000000000000000000000000000000000000000000000001454657374207061796d656e742072657175657374000000000000000000000000",
          "blockHash": "0xb438ee591ddfdd4052551cd50ff45b2e5c379c04d73fadce5980cc9204baaf38",
          "blockNumber": "0x17879e6",
          "transactionHash": "0x66c0619c399d8ddcfa98498b29c18b6152f89f317e236ddf210a449804920b35",
          "transactionIndex": "0x84",
          "logIndex": "0x115",
          "removed": false
        }
      ],
      "logsBloom": "0x00000000000000000000000000000000000000000000000010000000000000000000000000000000000000020000000010000000000000000000000000000000000000000000000000000008000000000000000000000000000000000000000000000000020000004000000000000800000000000000000000000010000000000000000000000000000000000000000000000000000000000000000000000000000000000000000000000000000000000000000000000000000000000000000000000002000000010000000000000200400000000000000000000000000020000080000000000000000000000000000040000000000000000000000000000000",
      "type": "0x2",
      "transactionHash": "0x66c0619c399d8ddcfa98498b29c18b6152f89f317e236ddf210a449804920b35",
      "transactionIndex": "0x84",
      "blockHash": "0xb438ee591ddfdd4052551cd50ff45b2e5c379c04d73fadce5980cc9204baaf38",
      "blockNumber": "0x17879e6",
      "gasUsed": "0x42c11",
      "effectiveGasPrice": "0x139a81d",
      "from": "0x4c64c7dc4fc7ba5b89fad3aebc68892bfc1b67d5",
      "to": "0xe3d939af7f5e3aa919ecf12776c7989cee2ddb8d",
      "contractAddress": null,
      "l1BaseFeeScalar": "0x8dd",
      "l1BlobBaseFee": "0x7729",
      "l1BlobBaseFeeScalar": "0x101c12",
      "l1Fee": "0x675777908",
      "l1GasPrice": "0x147c341f5",
      "l1GasUsed": "0x8ae"
    }
  ],
  "libraries": [],
  "pending": [],
  "returns": {},
  "timestamp": 1736134835,
  "chain": 8453,
  "commit": "44ab3dc"
}